:100000000C942A000C9444030C9447000C94470071
:100010000C9447000C9447000C9458040C94310441
:100020000C9447000C940C040C94BD030C946B03CB
:100030000C9447000C9447000C9447000C94470024
:100040000C9447000C9447000C9447000C94470014
:100050000C94470011241FBECFE5D8E0DEBFCDBF12
:1000600010E0A0E6B0E0E2E3FCE002C005900D92F3
:10007000A239B107D9F720E0A2E9B0E001C01D9292
:10008000A23CB207E1F70E9449000C9417060C94B9
:1000900000000E94510085E50E9488050E945F00D3
:1000A000FDCF0E94F8040E94530181E00E943803B2
:1000B0000E941C030E947B050E942F0308958F92CB
:1000C0009F92AF92BF92CF92DF92EF92FF92809178
:1000D000920090919300A0919400B09195000397A5
:1000E000A105B10509F078C040919A0050919B009C
:1000F00060919C0070919D0080919E0090919F0066
:10010000A091A000B091A100C0909600D09097005F
:10011000E0909800F090990080909E0090909F0051
:10012000A090A000B090A100C818D908EA08FB0868
:100130009A01AB01281B390B4A0B5B0BA4E6B0E01C
:100140000E94F805A70196010E94A80549015A01DD
:1001500060E080E00E947A0284E790E00E94CD0196
:10016000C501B4010E94E90185E20E946F0160E0CF
:1001700081E00E947A0282E890E00E94CD01A7010E
:100180009601012E1AE0220F331F441F551F1A95A6
:10019000D1F7102D60E074E284EF90E00E94A80592
:1001A000CA01B9010E94E9018FE890E00E94CD01E7
:1001B0002FEF80E792E0215080409040E1F700C0AF
:1001C00000001092920010929300109294001092EE
:1001D000950089B7806289BFFF90EF90DF90CF9044
:1001E000BF90AF909F908F900895CF93C82F60E0FD
:1001F00081E00E94950260E082E00E949502C4FBCB
:10020000662760F983E00E949502C5FB662760F9C6
:1002100084E00E949502C6FB662760F985E00E9493
:1002200095026C2F661F6627661F86E00E94950266
:1002300061E082E00E9495028FE99FE00197F1F76B
:1002400000C0000060E082E00E9495026C2F6170A7
:1002500083E00E949502C1FB662760F984E00E945A
:100260009502C2FB662760F985E00E949502C3FBF8
:10027000662760F986E00E94950261E082E00E94B4
:1002800095028FE99FE00197F1F700C0000060E060
:1002900082E00E9495028FE19EE40197F1F700C091
:1002A0000000CF91089583E30E94F50082E30E944D
:1002B000F50088E20E94F50081E00E94F50086E0EA
:1002C0000E94F5008CE00E94F50082E00E94F5009B
:1002D0008FE19EE40197F1F700C000000895CF93ED
:1002E000C82F61E081E00E94950260E082E00E94F8
:1002F0009502C4FB662760F983E00E949502C5FB66
:10030000662760F984E00E949502C6FB662760F9C3
:1003100085E00E9495026C2F661F6627661F86E0A7
:100320000E94950261E082E00E9495028FE99FE0C1
:100330000197F1F700C0000060E082E00E949502A2
:100340006C2F617083E00E949502C1FB662760F903
:1003500084E00E949502C2FB662760F985E00E9456
:100360009502C3FB662760F986E00E94950261E072
:1003700082E00E9495028FE99FE00197F1F700C0AB
:10038000000060E082E00E9495028FE19EE4019708
:10039000F1F700C00000CF9108950F931F93CF9302
:1003A000FC018081882359F08F01C0E00E946F0119
:1003B000CF5FF801EC0FF11D80818111F7CF8FE144
:1003C0009EE40197F1F700C00000CF911F910F91BB
:1003D00008954F925F926F927F928F929F92AF9209
:1003E000BF92CF92DF92EF92FF926B017C01611579
:1003F00071058105910551F480E30E946F0167C08A
:100400001C141D041E041F047CF061C09923C4F752
:100410008DE20E946F01F094E094D094C094C11CCE
:10042000D11CE11CF11CECCF61E070E080E090E0B9
:100430000F2EFAE08F2E912CA12CB12CF02DDC0187
:10044000CB01880F991FAA1FBB1F2C013D01440C33
:10045000551C661C771C440C551C661C771C480EEA
:10046000591E6A1E7B1EC701B601A50194010E9498
:10047000CA05640D751D861D971DC22ED32EE42E50
:10048000F52E1C141D041E041F04CCF262307105ED
:1004900081059105E4F00F2EFAE08F2E912CA12C0E
:1004A000B12CF02DA50194010E94CA05C22ED32EB5
:1004B000E42EF52E80E3860F0E946F016C2D7D2DBA
:1004C0008E2D9F2D62307105810591055CF78FE1BE
:1004D0009EE40197F1F700C00000FF90EF90DF90DD
:1004E000CF90BF90AF909F908F907F906F905F90D4
:1004F0004F900895CF93DF9300D0CDB7DEB790E84B
:10050000998390EC9A83FE01E80FF11D8181860F9B
:100510000E94F5008FE19EE40197F1F700C0000012
:100520000F900F90DF91CF910895982F9695969503
:1005300096958770662309F43FC0613009F07BC04F
:10054000913099F028F09230E9F0933041F108951C
:100550004BB321E030E0B90102C0660F771F8A95E6
:10056000E2F7CB01842B8BBB089548B321E030E048
:10057000B90102C0660F771F8A95E2F7CB01842B81
:1005800088BB089545B321E030E0B90102C0660F91
:10059000771F8A95E2F7CB01842B85BB089542B380
:1005A00021E030E0B90102C0660F771F8A95E2F7BB
:1005B000CB01842B82BB08959130A1F028F09230BA
:1005C000F9F0933059F108954BB321E030E0B901CF
:1005D00002C0660F771F8A95E2F7CB0180958423CE
:1005E0008BBB089548B321E030E0B90102C0660F2B
:1005F000771F8A95E2F7CB018095842388BB089505
:1006000045B321E030E0B90102C0660F771F8A953B
:10061000E2F7CB018095842385BB089542B321E0A6
:1006200030E0B90102C0660F771F8A95E2F7CB016F
:100630008095842382BB08958FB58E7F8FBD8FB543
:100640008D7F8FBD8EB5877F8EBD8EB58F7E8EBD23
:1006500089B7846089BF8EB585608EBD089517BC4B
:1006600016BC8EB580648EBD89B7806289BF08953F
:10067000882331F0813039F48FB780688FBF0895B7
:100680008FB78F778FBF08951F920F920FB60F927B
:1006900011242F933F934F935F936F937F938F9387
:1006A0009F93AF93BF93EF93FF93E091AC00F091D2
:1006B000AD000995FF91EF91BF91AF919F918F91FF
:1006C0007F916F915F914F913F912F910F900FBE4E
:1006D0000F901F9018951F920F920FB60F92112432
:1006E0002F933F934F935F936F937F938F939F933A
:1006F000AF93BF93EF93FF938091A6009091A700D3
:10070000A091A800B091A9000196A11DB11D8093F0
:10071000A6009093A700A093A800B093A9004091D1
:10072000B2005091B3006091B4007091B50084178D
:100730009507A607B70781F4E091AA00F091AB00F6
:1007400009951092A6001092A7001092A80010928E
:10075000A9008091BA0082BFFF91EF91BF91AF9144
:100760009F918F917F916F915F914F913F912F91C9
:100770000F900FBE0F901F9018951F920F920FB6FB
:100780000F9211242F933F934F935F936F937F9317
:100790008F939F93AF93BF93EF93FF938091A200AA
:1007A0009091A300A091A400B091A5000196A11D75
:1007B000B11D8093A2009093A300A093A400B093D6
:1007C000A5004091AE005091AF006091B0007091D3
:1007D000B10084179507A607B70769F4E091AA004E
:1007E000F091AB0009951092A2001092A300109214
:1007F000A4001092A500FF91EF91BF91AF919F913E
:100800008F917F916F915F914F913F912F910F90B9
:100810000FBE0F901F9018951F920F920FB60F9258
:1008200011248F939F93AF93BF938091B6009091C3
:10083000B700A091B800B091B9000196A11DB11DFB
:100840008093B6009093B700A093B800B093B9001E
:10085000BF91AF919F918F910F900FBE0F901F90FE
:1008600018951F920F920FB60F9211242F933F935A
:100870004F935F936F937F938F939F93AF93BF93A8
:10088000EF93FF93E091AA00F091AB000995FF91DF
:10089000EF91BF91AF919F918F917F916F915F91F8
:1008A0004F913F912F910F900FBE0F901F90189571
:1008B0001F920F920FB60F9211242F933F938F9395
:1008C0009F93AF93BF938091920090919300A091DA
:1008D0009400B09195000196A11DB11D80939200E6
:1008E00090939300A0939400B09395008091920010
:1008F00090919300A0919400B09195000197A1056B
:10090000B105C1F486B597B5A0E0B0E080939E0034
:1009100090939F00A093A000B093A1001092B60006
:100920001092B7001092B8001092B9008EB58F7B6C
:100930008EBD53C08091920090919300A09194003D
:10094000B09195000297A105B105E9F426B537B538
:100950008091B6009091B700A091B800B091B90015
:10096000DC0199278827820F931FA11DB11D809359
:100970009A0090939B00A0939C00B0939D008EB52D
:1009800080648EBD2AC08091920090919300A091C6
:100990009400B09195000397A105B105F1F426B537
:1009A00037B58091B6009091B700A091B800B09192
:1009B000B900DC0199278827820F931FA11DB11D63
:1009C0008093960090939700A0939800B09399001D
:1009D00017BC16BC89B78F7D89BFBF91AF919F911E
:1009E0008F913F912F910F900FBE0F901F901895F0
:1009F000E0E6F0E044E750E061E070E08081982FAD
:100A000096959695969587702181222319F021302D
:100A1000C9F16BC0913091F028F09230D9F0933049
:100A200029F163C09AB39B0102C0220F331F8A953C
:100A3000E2F7822F809589238ABB57C097B39B0129
:100A400002C0220F331F8A95E2F7822F80958923F7
:100A500087BB4BC094B39B0102C0220F331F8A9502
:100A6000E2F7822F8095892384BB3FC091B39B011D
:100A700002C0220F331F8A95E2F7822F80958923C7
:100A800081BB33C0913089F028F09230C9F09330A7
:100A900011F12BC02AB3DB0102C0AA0FBB1F8A953C
:100AA000E2F7CD01822B8ABB20C027B3DB0102C055
:100AB000AA0FBB1F8A95E2F7CD01822B87BB15C019
:100AC00024B3DB0102C0AA0FBB1F8A95E2F7CD0158
:100AD000822B84BB0AC021B3DB0102C0AA0FBB1F5B
:100AE0008A95E2F7CD01822B81BB3296E417F50798
:100AF00009F084CF089583B7886083BF83B780648B
:100B000083BF83B78F7E83BF83B7806283BF08951F
:100B1000982F80E064E670E00E94940561506CBFFD
:100B200083B7856083BF089597FB072E16F4009462
:100B300007D077FD09D00E94030607FC05D03EF4DC
:100B4000909581959F4F0895709561957F4F089579
:100B5000A1E21A2EAA1BBB1BFD010DC0AA1FBB1FC1
:100B6000EE1FFF1FA217B307E407F50720F0A21B33
:100B7000B30BE40BF50B661F771F881F991F1A94A0
:100B800069F760957095809590959B01AC01BD01CA
:100B9000CF010895052E97FB1EF400940E94E105F5
:100BA00057FD07D00E94A80507FC03D04EF40C9413
:100BB000E10550954095309521953F4F4F4F5F4F40
:100BC000089590958095709561957F4F8F4F9F4FB9
:100BD0000895A29FB001B39FC001A39F700D811D16
:100BE0001124911DB29F700D811D1124911D089536
:100BF0000E94E905A59F900DB49F900DA49F800DC4
:100C0000911D11240895AA1BBB1B51E107C0AA1F07
:100C1000BB1FA617B70710F0A61BB70B881F991F9D
:100C20005A95A9F780959095BC01CD010895F89447
:020C3000FFCFF4
:100C32000101020103010401050106011E000B016D
:100C420000000000447574795F4379636C65203D50
:100C520020004672657175656E6379203D200048FB
:020C62007A0016
:00000001FF
